:020000040800F2
:10000000E006002029020008EB060008E3060008CD
:10001000E7060008E3020008150F000800000000D2
:10002000000000000000000000000000410900087E
:100030009D0500080000000065070008310A00085F
:10004000430200084302000843020008430200087C
:10005000430200084302000843020008430200086C
:10006000430200084302000843020008430200085C
:100070004302000889030008430200084302000805
:10008000430200084302000843020008430200083C
:10009000430200084302000843020008430200082C
:1000A000430200084302000843020008430200081C
:1000B0009D0A0008430200084302000843020008AA
:1000C00043020008430200084302000843020008FC
:1000D00043020008430200084302000843020008EC
:1000E00043020008430200084302000843020008DC
:1000F00043020008430200084302000843020008CC
:1001000043020008430200084302000843020008BB
:1001100043020008430200084302000843020008AB
:10012000430200084302000843020008430200089B
:10013000430200084302000843020008430200088B
:10014000430200084302000843020008430200087B
:10015000430200084302000843020008430200086B
:10016000430200084302000843020008430200085B
:10017000430200084302000843020008430200084B
:10018000430200084302000800F002F800F03CF8C7
:100190000AA090E8000C82448344AAF10107DA45E2
:1001A00001D100F031F8AFF2090EBAE80F0013F0F8
:1001B000010F18BFFB1A43F0010318475014000049
:1001C00070140000103A24BF78C878C1FAD85207DA
:1001D00024BF30C830C144BF04680C6070470000C1
:1001E0000023002400250026103A28BF78C1FBD840
:1001F000520728BF30C148BF0B6070471FB501F0E0
:10020000FFF91FBD10B510BD00F031F81146FFF722
:10021000F5FF00F027FF00F04FF803B4FFF7F2FFFF
:1002200003BC00F057F80000094880470948004720
:10023000FEE7FEE7FEE7FEE7FEE7FEE7FEE7FEE796
:10024000FEE7FEE704480549054A064B70470000F3
:10025000350A000889010008E0000020E0060020BF
:10026000E0020020E00200207047704770477546AA
:1002700000F02CF8AE4605006946534620F0070012
:10028000854618B020B5FFF7DDFFBDE820404FF0F0
:1002900000064FF000074FF000084FF0000B21F070
:1002A0000701AC46ACE8C009ACE8C009ACE8C0093D
:1002B000ACE8C0098D46704710B50446AFF3008026
:1002C0002046BDE81040FFF7A8BF00000048704777
:1002D0007C00002001491820ABBEFEE7260002008A
:1002E000704700BFFEE7000000B58BB0012102207F
:1002F00000F04AFA0020ADF82800ADF822000520F1
:1003000009900020ADF820008DF82A0008A91C48AB
:1003100000F09AFC01211A4800F02FFC6020ADF893
:100320000C000020ADF818000120ADF80E000320ED
:10033000059003A9124800F03DFC0821104800F088
:1003400075FC0121042000F00FFA02208DF808004E
:1003500000208DF80A004FF40070019000208DF805
:100360000B0003208DF8090001A9064800F04AF9A6
:1003700002220921034800F08DF90BB000BD0000F6
:10038000000400400008024010B54549454800F00F
:1003900097F8002405E04448005D44490855601C76
:1003A00084B2092CF7DB01213E4800F0A3F83F4856
:1003B0000078412872D13D48007A5A286ED13B48D6
:1003C00040783B4908700846007830281ED13748ED
:1003D00040793038642110FB01F13448807930389D
:1003E00000EB800001EB40013048C0793038084410
:1003F00030490860084600684FF4484148434FF4CC
:10040000B471B0FBF1F02B4908603FE02848007858
:1004100031283BD1254880783038642110FB01F128
:100420002248C078303800EB800001EB40011F48C3
:1004300000793038084420490860084600684FF4C5
:10044000484148434FF4B471B0FBF1F01A490860D9
:10045000164840793038642110FB01F11348807947
:10046000303800EB800001EB40011048C079303893
:10047000084412490860084600684FF44841484360
:100480004FF4B471B0FBF1F00C49086008480078F3
:10049000302803D10748006800F03EFD10BD000081
:1004A0000080201040600240730000206A0000209D
:1004B0004400002014000020180000201C00002030
:1004C0000246094B9A4201D2084801E0064810381A
:1004D00001F000531BB1064B0B40C36002E0044B1C
:1004E0000B408360704700001064024000600240CF
:1004F0007D0F7D0F21B1026842F00102026003E02E
:10050000026822F001020260704710B501F080031A
:100510004BB122B1436943F08003436103E0436977
:1005200023F08003436180290BD02AB1036801F0D6
:100530001E042343036004E0036801F01E04A34388
:10054000036010BD10B500220268134B1A40CC683E
:100550000B6823434C6923438C692343CC692343B1
:100560000C6A23434C6A23438C6A23434C6B23431A
:100570008C6B23431A430260426922F00702D1E9DF
:100580000B3423431A4342610B6943604B68836019
:100590008B68C36010BD00003F801CF070470000F6
:1005A00010B50121022000F0DFF805220D211348CB
:1005B00000F070F805220E21104800F06BF80522BB
:1005C0000F210E4800F066F802200D4908714871AD
:1005D0004FF460400860094800F014F80120084911
:1005E0000871002088714FF4805008600020C871A5
:1005F00002204871014800F005F810BD00040240D7
:1006000000000020F0B50A4600210023002400BFAE
:100610003DE0012505FA01F3156805EA03049C4253
:1006200034D105684F000326BE40B54305601579F7
:100630004E00B5400668354305601579012D02D09E
:100640001579022D16D185684F000326BE40B543AB
:10065000856055794E00B5408668354385604568AC
:1006600001268E40B5434560456896798E40B6B206
:1006700035434560C5684F000326BE40B543C5609D
:10068000D5794E00B540C6683543C560491C102970
:10069000BFD3F0BDF0B5002300244D07ED0E02FAE4
:1006A00005F3CE1000F1200555F826504E07F70E41
:1006B0000F26BE40B543CF1000F1200646F8275064
:1006C000CE1000F1200555F8265045EA0304CE105F
:1006D00000F1200545F82640F0BD418370470183B5
:1006E000704700BFFEE700BFFEE7704770B500210E
:1006F00000230F22C4781CB3174C246804F4E06470
:10070000C4F5E064C4F30721C1F10404E3B20A4173
:1007100044789C40E1B28478144021430C07210EB8
:100720000E4C05786155047804F01F050124AC4097
:1007300005786D11AD0005F1E025C5F8004109E02F
:10074000047804F01F050124AC40054D06787611AD
:1007500045F8264070BD00000CED00E000E400E02C
:1007600080E100E07047000029B1064A12680243A8
:10077000044B1A6004E0034A12688243014B1A607A
:10078000704700003038024029B1064A126802431F
:10079000044B1A6004E0034A12688243014B1A605A
:1007A0007047000040380240F0B5002100220024CC
:1007B000022500260223324F3F6807F00C0121B1C9
:1007C000042905D0082937D105E02E4F076036E00F
:1007D0002D4F076033E02A4F3F1F3F68C7F3805615
:1007E000274F3F1F3F6807F03F036EB1264FB7FB0F
:1007F000F3F7DFF88CC0ACF1040CDCF800C0CCF3EC
:10080000881C07FB0CF40CE01E4FB7FBF3F7DFF876
:1008100070C0ACF1040CDCF800C0CCF3881C07FB02
:100820000CF4174F3F1F3F68C7F301477F1C7D0043
:10083000B4FBF5F7076002E0124F076000BF00BF8E
:100840000F4F3F6807F0F0010909104F7A5C076805
:10085000D74047600A4F3F6807F4E051890A0B4FC1
:100860007A5C4768D7408760054F3F6807F460416E
:10087000490B064F7A5C4768D740C760F0BD00005F
:10088000083802400024F40000127A0048000020DA
:1008900010B501218803FFF777FF20200A498881DE
:1008A00000200881C88088800880C8814FF4827049
:1008B00048804FF400704881044800F023F801217B
:1008C000024800F005F810BD580000200038004034
:1008D00021B1028842F04002028004E002884FF613
:1008E000BF731A40028070470246002013890B40F4
:1008F0000BB1012000E00020704701468889704755
:100900008181704710B50022028802F441520B88A1
:100910004C8823438C882343CC8823430C8923436E
:100920004C8923438C892343CC8923431A43028077
:10093000838B4FF2FF74234083830B8A038210BDA5
:10094000704700000CB5002001900090344800680A
:1009500040F480303249086000BF3148006800F43C
:10096000003000900198401C0190009818B901983F
:10097000B0F5A04FF1D12A48006800F4003010B162
:100980000120009001E0002000900098012846D14D
:1009900023484030006840F08050214940310860D1
:1009A0002048006840F440401E4908601C48083058
:1009B00000681B49083108600846006840F40040A0
:1009C00008600846006840F4A05008601648091FF7
:1009D0000860081F006840F08070091F086000BFB1
:1009E0000F48006800F000700028F9D040F2057050
:1009F0000E4908600A480830006820F003000849E2
:100A0000083108600846006840F00200086000BF36
:100A100003480830006800F00C000828F8D10CBD2D
:100A2000003802400070004008544007003C02407B
:100A30007047000010B51548006840F47000134975
:100A400008601348006840F0010011490860002068
:100A50000F49083108600E4800680E4908400C49EB
:100A600008600D48091D0860081F006820F48020F8
:100A7000091F0860002006490C310860FFF762FF7B
:100A80004FF0006001498039086010BD88ED00E03A
:100A900000380240FFFFF6FE1030002410B52DEDA7
:100AA000028B0121880700F074F800284ED02948F5
:100AB000007801284AD128480078012846D1012130
:100AC000800700F057F80021212000F0F1FA2348B8
:100AD00000782349087023480068234908600846C5
:100AE000008880B208600846006800F028FD00F029
:100AF000F9FC84B24FF4B47060434FF4484190FB6A
:100B0000F1F084B21948046000BF642094FBF0F057
:100B10000A2190FBF1F201FB120030301449887079
:100B20000A2094FBF0F00A2190FBF1F201FB120085
:100B300030300F49C8700A2094FBF0F100FB1140DF
:100B400030300B49087100F0EDFB00BFBDEC028BAB
:100B500010BD000045000020460000200C000020D1
:100B600030000020080000202C0000204000002061
:100B70000D000020CA430282704721B1028842F072
:100B80000102028004E002884FF6FE731A400280E0
:100B9000704730B50246002000230024158A05EA7C
:100BA0000103958905EA010413B10CB1012000E0AD
:100BB000002030BD70B5002200230024058C4EF6C5
:100BC000FF7635400584038C8488828B48F6FF7558
:100BD0002A404FF6FF452A400D884FF6FF7606EA79
:100BE00005252A434DF6FF752B408D8906EA05350C
:100BF0002B434D8806EA05352B430A4DA84202D007
:100C0000094DA84208D14BF6FF752C400D8A4FF6CE
:100C1000FF7606EA85152C43848082838D680564FF
:100C2000038470BD00000140000401400A46002119
:100C3000818B4FF2FF7319404FF6FF7303EA0223D3
:100C4000194381837047000000220288184B9842A4
:100C50000ED0184B98420BD0B0F1804F08D0164BF5
:100C6000984205D0154B984202D0154B984204D1BA
:100C70004FF68F731A404B881A43124B984207D095
:100C8000114B984204D04FF6FF431A400B891A4388
:100C900002804B68C3620B880385054B984202D0E3
:100CA000044B984201D18B7A0386012383827047DB
:100CB0000000014000040140000400400008004022
:100CC000000C0040001000400014004000B597B038
:100CD00001210846FFF748FD0121C804FFF754FD34
:100CE00001214805FFF740FD082200213D48FFF79C
:100CF000D1FC082201213B48FFF7CCFC01201590D4
:100D000002208DF8580000208DF85A0001208DF83F
:100D10005B0002208DF8590015A93248FFF772FCDC
:100D2000022015908DF8580015A92E48FFF76AFC8F
:100D30004FF4E13011900020ADF84800ADF84A00C2
:100D4000ADF84C00ADF850000C20ADF84E0011A9E4
:100D5000254800F071F80121234800F04BF80122EA
:100D60004021214800F052F84FF0006002901E48E8
:100D7000001D03901D480490002005900920069056
:100D8000002007904FF480600890002009900A909E
:100D90004FF480700B9040020C9000200D900120C9
:100DA0000E9000200F90109002A91148FFF7CAFB87
:100DB00001210F48FFF79EFB0D208DF80400002055
:100DC0008DF805008DF8060001208DF8070001A8B8
:100DD000FFF78CFC012210210548FFF796FB17B0A6
:100DE00000BD000000000240004C004073000020E5
:100DF0004060024021B1828942F40052828104E0C5
:100E000082894DF6FF731A40828170471AB1838A36
:100E10000B43838202E0838A8B43838270470246BE
:100E20000020B1F5007F00D100BF13880B400BB14B
:100E3000012000E0002070472DE9FF4705460E46DF
:100E40000024A14600BFA046B08900B100BF2C8A93
:100E500024F44054F08804432C82AC8941F20C60A5
:100E60008443B08831890843718908430443AC81C5
:100E7000AC8A24F44074B0890443AC826846FFF71E
:100E800093FC2048854202D01F48854202D1DDF8FC
:100E90000C9001E0DDF80890A88900F4004040B112
:100EA00009EBC90000EB091031684900B0FBF1F70C
:100EB00007E009EBC90000EB091031688900B0FBBD
:100EC000F1F76420B7FBF0F004012009642101FB75
:100ED0001078A88900F4004040B1322000EBC8002F
:100EE000B0FBF1F000F00700044308E0322000EB13
:100EF00008106421B0FBF1F000F00F0004432C81D6
:100F0000BDE8FF870010014000140140C1F3080252
:100F10008280704700BFFEE770B52DED028B04465E
:100F20002146B72000F064F941F2883000F054F80F
:100F30000021212000F0BCF82148007821490870E8
:100F400021480068214908600846008880B208608E
:100F50000846006800F0F3FA00F0C4FA85B24FF4D6
:100F6000B47068434FF4484190FBF1F085B21848E3
:100F7000056000686421B0FBF1F00A21B0FBF1F2DA
:100F800001FB1200303013498870114800680A21B3
:100F9000B0FBF1F0B0FBF1F201FB120030300D4973
:100FA000C8700B4800680A21B0FBF1F201FB120087
:100FB00030300849087100F0B5F9BDEC028B70BD06
:100FC0000C00002030000020080000202C00002031
:100FD000400000200D00002010B504460121102023
:100FE000FFF7D2FB42F2CF000C490885601EC862B1
:100FF00000204862012088820020088201200880A9
:1010000000BF0648008A0028FBD000200349088062
:1010100000211020FFF7B8FB10BD000000100040B9
:1010200010B5044601211020FFF7AEFB53200C49F8
:101030000885601EC8620020486201208882002066
:1010400008820120088000BF0548008A0028FBD0E4
:1010500000200349088000211020FFF795FB10BDF8
:10106000001000404120104908702C204871487041
:101070005A208871FFF7DEFCFFF70AFCFFF734F90E
:10108000FFF78EFAFFF722FE00F064F90521A02099
:1010900000F0AEF80549A42000F0AAF80021A12034
:1010A00000F0A6F800BFFEE70D00002000400D0391
:1010B0002DE9F04106460C460020494908704FF4DE
:1010C0007A70FFF789FF4FF480514648FFF705FB20
:1010D0000A20FFF7A5FF00BF02214348FFF704FCE9
:1010E0000128F9D131464048FFF70AFC00BF012131
:1010F0003D48FFF7F9FB0128F9D13B48FFF7FDFB1D
:10110000C7B200BF02213848FFF7EEFB0128F9D132
:10111000210E3548FFF7F4FB00BF01213248FFF7ED
:10112000E3FB0128F9D13048FFF7E7FB45EA00650A
:1011300000BF02212C48FFF7D7FB0128F9D1C4F3E7
:1011400007412948FFF7DCFB00BF01212648FFF7D4
:10115000CBFB0128F9D12448FFF7CFFB45EA004536
:1011600000BF02212048FFF7BFFB0128F9D1C4F3DB
:1011700007211D48FFF7C4FB00BF01211A48FFF7F4
:10118000B3FB0128F9D11848FFF7B7FB45EA002562
:1011900000BF02211448FFF7A7FB0128F9D1E1B2F3
:1011A0001148FFF7ADFB00BF01210F48FFF79CFB83
:1011B0000128F9D10C48FFF7A0FB05433E460B4838
:1011C00005604FF47A70FFF707FF4FF48051054830
:1011D000FFF785FA012002490870BDE8F0810000A0
:1011E00045000020000402400038004008000020B4
:1011F0002DE9F04106460C460020474908704FF49F
:101200007A70FFF7E9FE4FF480514448FFF765FA22
:101210000A20FFF705FF00BF02214148FFF764FBEA
:101220000128F9D131463E48FFF76AFB00BF012192
:101230003B48FFF759FB0128F9D13948FFF75DFB1F
:10124000C7B200BF02213648FFF74EFB0128F9D193
:10125000210E3348FFF754FB00BF01213048FFF750
:1012600043FB0128F9D12E48FFF747FB45EA00650B
:1012700000BF02212A48FFF737FB0128F9D1C4F348
:1012800007412748FFF73CFB00BF01212448FFF737
:101290002BFB0128F9D12248FFF72FFB45EA004537
:1012A00000BF02211E48FFF71FFB0128F9D1C4F33C
:1012B00007211B48FFF724FB00BF01211848FFF757
:1012C00013FB0128F9D11648FFF717FB45EA002563
:1012D00000BF02211248FFF707FB0128F9D1E1B254
:1012E0000F48FFF70DFB00BF01210D48FFF7FCFA87
:1012F0000128F9D10A48FFF700FB05434FF47A7043
:10130000FFF76AFE4FF480510448FFF7E8F9012027
:1013100001490870BDE8F081460000200004024049
:101320000038004010B500240DE00848015D084871
:10133000FFF7ECFD00BF80210548FFF770FD002896
:10134000F9D0601C84B2072CEFDB10BD0D0000202B
:10135000004C004010B55A49CF20FFF749FF5949CA
:101360008320FFF745FF58498420FFF741FF46F2ED
:1013700026018020FFF73CFF4FF001119020FFF77E
:1013800037FF0021EC20FFF733FF5049EC20FFF737
:101390002FFF4FF42021EC20FFF72AFF4C49EC20CF
:1013A000FFF726FF4FF46F21EC20FFF721FF00210C
:1013B000A420FFF71DFF0021A120FFF719FF002146
:1013C000B720FFF715FF49F64041D420FFF710FF83
:1013D0004FF0FF119C20FFF70BFF0421A020FFF727
:1013E00007FF4FF48031DC20FFF702FF4FF480014C
:1013F0008720FFF7FDFE8021B720FFF7F9FE4FF0B1
:10140000A0718720FFF7F4FE0A20FFF7E5FD4FF4F7
:1014100080018720FFF7ECFE0021A420FFF7E8FE03
:101420000121A020FFF7E4FE44F62061A820FFF789
:10143000DFFE44F62061A920FFF7DAFE2549E0200F
:10144000FFF7D6FE2449E120FFF7D2FE2349E3202F
:10145000FFF7CEFE1421DF20FFF7CAFE4FF48031E4
:10146000DC20FFF7C5FEC821DA20FFF7C1FE3221DC
:10147000DB20FFF7BDFE4FF47A71DD20FFF7B8FEE9
:101480001449DE20FFF7B4FE15498620FFF7B0FEB1
:101490004FF47A719820FFF7ABFE42F21071992059
:1014A000FFF7A6FE4FF0D2518720FFF7A1FE802163
:1014B0008520FFF79DFE0521A020FFF799FE10BDB6
:1014C00000545352220054006B004044850509002B
:1014D00018000C00400D030000093D00640B0002E1
:1014E000051F32004FEA1153A3F58063D3F11E03A9
:1014F000A8BFD3F1200C08DB4FF0004242EAC12222
:1015000052EA505232FA03F0704709420BD4102BC2
:10151000C4BF0020704703F5787CBCF1FF3F05D0C5
:101520004FF0FF3070474FF00000704770B500F08B
:1015300019F800BF4992248000207047F0E7B0FA04
:1015400080F310FA03F10AD0C3F11D0303F58063A1
:101550004FEA41504FEA035202EBD12170474FF05E
:10156000000070470EF1020E2EF0030E5EF8046BC1
:10157000364205D4012A43EB030515F5001F12D8A6
:10158000012841EB010C1CF5001F0CD80ED14FEACD
:10159000D17C15F5001F0CEB4C0C0CF1020C08BFB4
:1015A0004CEBD37C04E04FF0080C01E04FEAD37C15
:1015B0000CEB4C0526FA05F606F00706B6F1040C0E
:1015C00006D20EEB860CBDE870404CF0010C604773
:1015D000DFE80CF0090B02024FF000414FF0000071
:1015E000A1F5002170BD19461046012851EB0104F8
:1015F00018BFD4F5001484BF002001F0004170BD75
:101600004FF04070E1EE100A704700002C16000801
:101610000000002058000000C401000884160008E3
:101620005800002088060000E001000800000000CB
:1016300000000000000000000000000000000000AA
:10164000000000000000000000000000000000009A
:10165000000000000000000000000000000000008A
:10166000000000000000000000000000000000007A
:101670003000000000000000010203040102030426
:041680000607080948
:040000050800018965
:00000001FF
